:020000040800F2
:1000000000040020B1020008B1030008B103000899
:10001000B1030008B1030008B1030008B1030008F0
:10002000B1030008B1030008B1030008E1030008B0
:10003000B1030008B1030008B1030008B1040008CF
:10004000B1030008B1030008B1030008B1030008C0
:10005000B1030008B1030008B1030008B1030008B0
:10006000B1030008B1030008B1030008F121000842
:100070002122000861220008A1220008E1220008D4
:10008000112300085123000881290008B10300084A
:10009000B1030008B1030008B1030008B103000870
:1000A000B1030008B1030008B1030008B103000860
:1000B000B1030008B1030008B1030008B103000850
:1000C000B1030008B1030008B1030008B103000840
:1000D000B103000881390008B1030008B10300082A
:1000E000B1030008B1030008B1030008B103000820
:1000F000B1030008B1030008B10300089123000810
:10010000B1030008B1030008B1030008B1030008FF
:10011000B1030008B1030008B1030008B1030008EF
:10012000D12300080124000841240008812400088C
:10013000C1240008B1030008B1030008B10300089E
:10014000B1030008B1030008B103000881370008BB
:10015000F12400083125000871250008B1030008CA
:10016000B1030008B1030008B1030008B10300089F
:10017000B1030008B1030008B1030008B10300088F
:10018000B1030008B1030008B1030008B10300087F
:10019000B1030008B1030008B1030008B10300086F
:0C01A000B1030008B1030008B10300081F
:1001B00070B582B001F014F900F0FAF903F0F0FC28
:1001C0002348244E002101F053F9002402F090FC52
:1001D00021480221032202F07BFD204B00944FF4C2
:1001E000A87102221E4800F0EBFD1E4B00944FF454
:1001F000A8717F221C4800F0E3FD1C4B00944FF4D3
:10020000A87102221A4800F0DBFD1A4B00944FF44B
:10021000A8717F22184800F0D3FD00941748184BAE
:100220004FF48871022200F0CBFD4FF4005503F02B
:10023000A7FC002814BF7D244FF4FA742046758370
:1002400000F0F6FD2046358300F0F2FDEFE700BF39
:10025000300E0020000C024000080240513C000813
:10026000F8160020C13C000860180020013C00087E
:10027000A8150020B13D0008481300209814002064
:10028000913C000800000000000000000000000099
:10029000704700BF000000000000000000000000E8
:1002A000FEE700BF000000000000000000000000AA
:1002B00072B6314880F30988022383F31488BFF3B0
:1002C0006F8F2E4B2E4A93420BD2D9430A4422F011
:1002D000030204321A444FF0553143F8041B934291
:1002E000FBD1284B83420CD2274A191D521A22F007
:1002F000030204321A444FF0553143F8041B934271
:10030000FBD103F0EDFB214A214B9A420CD2D043A2
:10031000184420F003001F4B0430184453F8041B0A
:1003200042F8041B8342F9D11B4B1C4A93420AD268
:10033000D9430A4422F0030204321A44002143F84C
:10034000041B9342FBD1164D164CFFF7A1FFAC42A4
:1003500004D254F8043B9847AC42FAD3124D134CE4
:10036000FFF726FFAC4204D254F8043B9847AC4256
:10037000FAD3FFF795FF00BF00080020000000201F
:1003800000040020000400200308002000080020D2
:100390000C080020B84A000810080020F0190020BE
:1003A000AC010008AC010008AC010008AC01000879
:1003B000FEE700BF00000000000000000000000099
:1003C00072B6FEE700000000000000000000000020
:1003D00000F076F900F054FC00F08AF900DF00BF6D
:1003E000EFF30983203383F30988002383F3118813
:1003F000704700BF00000000000000000000000087
:1004000008B5094B094A002199600720DA601021DC
:1004100000F0A6F80A20202100F0A2F80B2080218D
:10042000BDE8084000F09CB800ED00E00003FA05CC
:10043000202383F31188184B5B6813F400631AD0F0
:10044000EFF309834FF0807243F8042CA3F12002EC
:1004500082F3098811498A6992F8230070B108680B
:10046000916882688A4294BF002201227AB10C4AC4
:1004700043F8082C704783F3118870470868916827
:1004800082688A4234BF00220122002AEFD1054A45
:1004900043F8082C704700BF00ED00E0640D002019
:1004A000D1030008DC030008000000000000000089
:1004B00008B500F075F9202383F3118800F038F9AE
:1004C00000F0AEF800F04CF9002383F3118800F03F
:1004D00087F9BDE80840FFF7ABBF00BF0000000090
:1004E0002DE9F04FC1F80CD0D0F80CD0BDE8F08F5A
:1004F00008B500F0FDF8002383F311882846A047D3
:1005000000F0D6FC08BD00BF0000000000000000A5
:1005100020F0030202F1604202F5614270B4430927
:1005200000F00304D2F80053E400FF269B00A6402D
:1005300003F16043A14025EA060503F56143012468
:1005400000F01F0004FA00F02943C2F8001370BC49
:10055000C3F8800118607047000000000000000030
:1005600020F0030303F1604303F56D4300F0030043
:1005700010B4C0009A69FF24844022EA040281403A
:10058000114399615DF8044B704700BF0000000003
:10059000024B034A9B699A61FEE700BF640D00208D
:1005A000703F000800000000000000000000000094
:1005B00030B583B0FFF724FF00F002FA00F098F99D
:1005C00000F0B6FE00F0FCFE00F05AF940210E48A3
:1005D0000E4D00F065FB01240D4BC36180F82040F7
:1005E000A86100F055F8002383F3118862B6AA6968
:1005F00008499161084800932246084BE02100F029
:10060000DFFB03B030BD00BF10080020640D0020E8
:1006100000040020F0400008600800209105000858
:10062000F8B500F0FDF8164B9B6993F8232012B142
:10063000013A83F823205A6A124D01325A62EB685C
:100640002C680133AC42EB6018D0A768013FA7606B
:10065000A7B92368E668E7605D602B6000F080F86A
:10066000002383F311882069B047202383F3118886
:1006700000F05EF82C68A368002BEAD0F8BD00BF3C
:10068000640D0020540D0020000000000000000058
:10069000054B1B6813B9054B1B6823B1044B054A76
:1006A0001A60FFF78DBE7047400900204C0D0020F6
:1006B000500D0020903F00080000000000000000E6
:1006C000074B1B6810B5074C0BB9236823B1064BC9
:1006D000064A1A60FFF774FE0123236010BD00BFB5
:1006E000400900204C0D0020500D0020983F0008CC
:1006F000094B1B6810B5094C2BB92368002B02DD90
:100700000023236010BD064B064A1A60FFF758FE0F
:100710000023236010BD00BF400900204C0D0020C5
:10072000500D0020A03F0008000000000000000065
:10073000074B1B68002B10B5064C01DD236823B165
:10074000054B064A1A60FFF73BFE0123236010BDEC
:10075000400900204C0D0020500D0020A83F00084B
:10076000094B1B68002B10B5084C05DD2368002BD6
:1007700002DD0023236010BD054B064A1A60FFF717
:100780001FFE0023236010BD400900204C0D0020F7
:10079000500D0020B03F00080000000000000000E5
:1007A00010B5202383F31188094C2368002B02DB4A
:1007B000084A12682AB1084B084A1A60FFF700FE7F
:1007C000236801332360002383F3118810BD00BF29
:1007D000400900204C0D0020500D0020B83F0008BB
:1007E00010B5202383F31188094C2368002B02DD08
:1007F000084A12682AB1084B084A1A60FFF7E0FD60
:100800002368013B2360002383F3118810BD00BFE0
:10081000400900204C0D0020500D0020C03F000872
:10082000064B1B68002B04DB054B1B68002B00DD0F
:100830007047044B044A1A60FFF7C2BD400900200C
:100840004C0D0020500D0020C83F000800000000A3
:10085000064B1B6823B9064B1B68002B00DD704755
:10086000044B054A1A60FFF7ABBD00BF40090020EA
:100870004C0D0020500D0020D03F0008000000006B
:10088000034A1346402143F8081B5360704700BFDA
:1008900044090020000000000000000000000000EB
:1008A0000C4A0D495368896910B40C4CE4681C600B
:1008B0005960816A996090F820101973103302F51D
:1008C00081618B4228BF02F1080353605DF8044B3D
:1008D000704700BF44090020640D0020540D002023
:1008E000014B1860FFF76CBD500D002000000000A8
:1008F000044B4FF0FF3100225B601B609960DA60AF
:10090000704700BF540D00200000000000000000F0
:10091000F8B505460C4616461F46FFF781FFCDB1D8
:10092000C6B1BCB10D492F610B68EE609A68944264
:1009300004D91B68A41A9A68A242FAD35A686A605A
:100940008B422B605D601560AC6002D09968091B1A
:100950009960F8BD0248FFF7C3FFE3E7540D00209C
:10096000E03F000800000000000000000000000060
:1009700010B50446FFF754FF84B1E36893B12368D0
:100980000A4A934203D09968A2680A449A6062684E
:100990001360216800234A60E36010BD0448FFF73C
:1009A0009FFFEAE70348FFF79BFFE8E7540D0020AD
:1009B000F03F0008004000080000000000000000B8
:1009C000034B00225B601B605B611B619A60704798
:1009D000640D002000000000000000000000000086
:1009E00010B50446FFF71CFF94F820308BB10E2B96
:1009F0000FD00022A168094B84F820201B689A6858
:100A00008A42FBD25A686260236020465C601460B0
:100A100010BD0348FFF764FFEBE700BF640D002043
:100A2000204000080000000000000000000000005E
:100A300010B52023044683F31188FFF779FE94F85C
:100A400020300D2B11D8DFE803F016101007100B23
:100A5000101010101010100BA26A936801339360ED
:100A600094E80C001A60226853604FF0FF33A362D1
:100A70002046FFF7B5FFFFF773FE002383F31188CD
:100A800010BD00BF000000000000000000000000DA
:100A900070B5114C0646FFF7DBFE2368A5691A689E
:100AA00085F820601420012185F823005460284631
:100AB00083F820102260A361FFF7F2FEEA69ADF12E
:100AC00024039A4202D90548FFF70AFFA069294684
:100AD000BDE87040FFF704BD640D002034400008FD
:100AE00070B50C4686B00646FFF7B2FE631C12D006
:100AF0000D4D0E4AAB69214601A8FFF709FF3046AC
:100B0000FFF7C6FF049B13B101A8FFF731FFAB69E4
:100B1000986A06B070BD044D3046FFF7B9FFAB6967
:100B2000986A06B070BD00BF640D0020310A00084D
:100B300070B5164D04460E46FFF78AFEA869A268F6
:100B40008368A6629A4213D9FFF74AFF012306463B
:100B500084F82030AC61FFF7A3FEF269ADF1240305
:100B60009A420AD820463146BDE87040FFF7B8BC2B
:100B70002046BDE87040FFF733BF0548FFF7B0FEE1
:100B800020463146BDE87040FFF7AABC640D002046
:100B900034400008000000000000000000000000D9
:100BA00070B5104C2368A5691A68226014210126CB
:100BB0005460284683F8206085F82310A361FFF76E
:100BC0000FFF2846FFF76CFEEA69ADF124039A4255
:100BD00002D90548FFF784FEA0692946BDE87040A8
:100BE000FFF77EBC640D00203440000800000000C8
:100BF00070B5154D2A68AC691368A0682B60012692
:100C000000215D6082F820601346AA6184F82010FC
:100C100000E01B689A688242FBD85A6862602360D1
:100C200020465C601460FFF73BFEE269ADF12403EF
:100C30009A4202D90548FFF753FEA8692146BDE84C
:100C40007040FFF74DBC00BF640D00203440000829
:100C500008B5FFF7FDFD064B1A689B6992689B6813
:100C60009A4200D808BDBDE80840FFF7C1BF00BFE9
:100C7000640D0020000000000000000000000000E3
:100C8000044B9B6993F823300BB1FFF7B1BFFFF71B
:100C900087BF00BF640D00200000000000000000BE
:100CA0002DE9F043134C416466694661002200F16E
:100CB00030054FF002094FF014084FF0010C00F11D
:100CC0002C0E00F14C078160046180F82090606177
:100CD00080F8238080F822C080F821200264C2635B
:100CE000426282613061C0F82CE0C76145630563F0
:100CF000BDE8F083640D002000000000000000004B
:100D0000884203D200F8012B8842FBD1704700BF14
:100D10002DE9F84F0446894616469846FFF780FDB0
:100D200014B1B9F1CF0F38D81F48FFF7D9FD1F4DC7
:100D3000DFF87CB06F69A9F124016018E06000233E
:100D400044F801804FF0020A4FF014094FF0010CF3
:100D50000A994160C0F820B004F1300204F12C0E71
:100D600004F14C0884F820A084F8213084F8239002
:100D700084F822C0A6602561676166646C612364A3
:100D8000E3636362A36120463C61C4F82CE06263C4
:100D90002263C4F81C80BDE8F88F7F2EC4D8B8F158
:100DA000000FC4D1C0E700BF50400008640D002010
:100DB000F104000800000000000000000000000036
:100DC0002DE9F04782B099460A9E0746884692462A
:100DD00000F14C040346FF2503F8015B9C42FBD164
:100DE00007EB08039C4204D2552504F8015B9C42A2
:100DF000FBD1202383F31188FFF762FC4B46524658
:100E0000414600963846FFF783FF00210446FFF76E
:100E10008FFEFFF76DFC002383F31188204602B09C
:100E2000BDE8F087000000000000000000000000A6
:100E300010B5044610B90948FFF752FD202383F38B
:100E40001188FFF73DFC21460620FFF749FEFFF71A
:100E50004FFC002383F3118810BD00BF90400008B1
:100E600038B5104B9C692546A06255F82C0FA84256
:100E700006D00368E362FFF7B3FDE06AA842F8D149
:100E800094F821309B0704D1636922691A612269B1
:100E900053610E20FFF7FCFD0348BDE83840FFF723
:100EA0001FBD00BF640D0020A0400008000000002E
:100EB00010B52023044683F31188FFF701FC204678
:100EC000BDE81040FFF7CCBF0000000000000000AC
:100ED00010B5044620B1002364602460A36010BDF7
:100EE0000148FFF7FDFCF6E7104100080000000094
:100EF00038B504460D46FFF793FCC4B1E36B94F894
:100F0000202045EA0301082AE1630CD0092A00D019
:100F100038BDA36A19408B42FAD12046FFF760FD25
:100F20000023836238BDA36A1942F6D138BD024856
:100F3000FFF7D6FCE2E700BFEC410008000000002C
:100F400070B505460E46FFF76BFC65B12C68A542EF
:100F500008D0201D0BC83343E360FFF7C9FF2468A6
:100F6000A542F6D170BD0248FFF7BAFCEEE700BF1C
:100F70000042000800000000000000000000000027
:100F800071B1094B9B6910B498624468024683E8CA
:100F900014000D20536023605DF8044BFFF7A0BDE3
:100FA0004FF0FF30704700BF640D002000000000CC
:100FB00030B4029C046200250A44856002614060EE
:100FC000006041618161C160C36130BC704700BF96
:100FD00038B50446FFF724FC2068E368636100220B
:100FE000A042A260A3610AD06FF0010503682360EC
:100FF0005C60FFF7F5FC85622068A042F6D138BD41
:1010000038B504460D46FFF70BFCA36962699A42A6
:10101000A3681BD00133511CA36061611570626924
:1010200023699A420BD22068A0420DD00368236046
:101030005C60FFF7D5FC00238362184638BD20684A
:10104000E3686361A042F1D1002038BD002BE1D0FC
:101050006FF0030038BD00BF00000000000000007A
:10106000F8B504460F46202383F31188FFF728FBC9
:10107000E36933B12046984703E0FFF781FF061E7E
:1010800018DBA56820463946002DF6D0A2692169F3
:10109000531C8B4205F1FF35A361A56028BFE368AF
:1010A000167828BFA361FFF723FB002383F3118881
:1010B0003046F8BDFFF71CFB2B4683F31188304602
:1010C000F8BD00BF000000000000000000000000AC
:1010D0002DE9F047044689461E46D0F81C8092460A
:1010E000002A37D0202383F31188FFF7E9FA00277D
:1010F000B8F1000F05D02046C04702E0FFF740FFDF
:1011000000BBA56820463146002DF7D0A369013DFC
:101110005A1CA261A5601B7809F8013B2369A269EA
:101120009A4224BFE368A361FFF7E2FA002383F346
:1011300011880137BA450AD0202383F31188FFF7BD
:10114000BFFAD5E7FFF7D4FA2B4683F31188384668
:10115000BDE8F0870148FFF7C3FBC3E75042000832
:1011600030B4029C04628D180561406000608260AA
:1011700041618161C160C36130BC70470000000003
:1011800038B50446FFF74CFBE268236920686261CA
:101190009B1AA042A261A3600AD06FF00105036808
:1011A00023605C60FFF71CFC85622068A042F6D1DA
:1011B00038BD00BF0000000000000000000000007B
:1011C0002DE9F041202304468846174683F3118811
:1011D000FFF776FA03E0FFF7D3FE061E1DDBA568D6
:1011E00020463946002DF6D06369013D5A1C6261E4
:1011F000A56083F80080236962699A4224BFE3688E
:101200006361E3690BB120469847FFF771FA002349
:1012100083F311881846BDE8F081FFF769FA2B4681
:1012200083F311883046BDE8F08100BF0000000064
:1012300038B50446FFF7F4FA6369A2699342A368DC
:1012400016D02069511C0133A360A1618142157839
:101250000BD22068A04206D0036823605C60FFF7D1
:10126000BFFB00238362284638BDE368A361F0E733
:10127000002BE6D06FF0020038BD00BF0000000078
:101280002DE9F84F04460E469B46D0F81CA01746A1
:10129000002A41D0202383F31188FFF711FA4FF081
:1012A0000009A56806F101086A1E204635B3636986
:1012B000A2605A1C626132781A70236962699A428C
:1012C00024BFE3686361BAF1000F00D0D047FFF795
:1012D0000FFA002383F31188013F09F101094FF050
:1012E000200316D083F31188FFF7EAF9A568464674
:1012F0006A1E06F101082046002DD8D12046594625
:10130000FFF73EFE0028CCD0FFF7F2F92B4683F31F
:1013100011884846BDE8F88F0148FFF7E1FAB9E7C0
:10132000644200080000000000000000000000000F
:10133000054A064B0648074922F0070223F0070337
:1013400002600B60704700BFF719002000C0012049
:10135000840D0020800D002000000000000000002F
:1013600010B50446FFF75CFA0649074B08681A688F
:10137000E31D23F00703121A93429ABF1B180B6058
:10138000002010BD840D0020800D00200000000012
:1013900010B52023044683F31188FFF791F9204606
:1013A000FFF7DEFF0446FFF7A3F9002383F311885C
:1013B000204610BD000000000000000000000000FA
:1013C000044B054A1A6003F1100000229A60DA60AB
:1013D000FFF77EBD880D002091130008000000007B
:1013E00008B501F065F900F073FB074801F088FBD0
:1013F00000F026F800F004F900F08AFB00F008FA8B
:10140000BDE8084002F074BB60470008000000001F
:1014100008494A68104482424B6802D29A4202D973
:1014200070479A42F7D9984294BF00230123002BBA
:10143000F1D17047001000E0000000000000000043
:1014400001F0E6B90000000000000000000000000C
:1014500000230122027043608360C3600361436123
:101460001830FFF735BD00BF00000000000000008D
:1014700038B50D460446B8B1202383F31188FFF731
:101480001FF92378013B012B02D90948FFF728FAFD
:101490002046656001F0DCF902232370FFF728F98C
:1014A000002383F3118838BD0248FFF719FAE3E7F8
:1014B0009042000880420008000000000000000088
:1014C000F8B504460E4617461D46FFF7A9F9C4B104
:1014D000BEB1B7B1012D01D0EB0712D42378022B96
:1014E00005D0043B012B02D90848FFF7F9F9032383
:1014F000A760E560266123702046BDE8F84001F052
:10150000DFB90348FFF7ECF9E8E700BFD442000871
:10151000BC420008000000000000000000000000C5
:101520002DE9F0411E46044688461746202383F3E2
:101530001188FFF7C5F8636913B10C48FFF7D0F9BC
:101540000B4D41463A4633462046FFF7B9FFAB699B
:1015500063610220FFF79CFAAB699C6AFFF7C8F849
:10156000002383F311882046BDE8F081544300082E
:10157000640D0020000000000000000000000000DA
:101580000C30FFF7A5BD00BF000000000000000008
:101590000C304FF0FF33FFF79BBD00BF0000000091
:1015A0003030FFF76DBE00BF0000000000000000FB
:1015B00030304FF0FF33FFF763BE00BF0000000084
:1015C0000C30FFF74DBD00BF000000000000000020
:1015D0000C304FF0FF31FFF743BD00BF00000000AB
:1015E0003030FFF7EDBD00BF00000000000000003C
:1015F00030304FF0FF32FFF7E3BD00BF00000000C6
:1016000002F05EBA000000000000000000000000D0
:1016100070B50E4B044682B040F8043B012600949E
:101620000B461546606004F1540104F10C0026726B
:101630001022FFF7BDFC00942B4604F1300004F1AA
:1016400064011022FFF78CFD02B070BDF04300086A
:1016500038B504460D46FFF7E3F8D4B163693BB1F2
:10166000294604F10C00FFF7CBFC00280BDB38BD4A
:10167000201D0421FFF764FC294604F10C00FFF74C
:10168000BFFC0028F3DA201D8021BDE83840FFF7B9
:1016900057BC0248FFF724F9E0E700BFC843000841
:1016A00070B5046AD4F8542213681978042900D05C
:1016B00070BD217A0229FBD11B891279134113F0E5
:1016C0000105F5D1226CE36BA66BD31A9E1BEFD0FC
:1016D000FFF70EF82B4683F31188D4F854223346D3
:1016E0001068117904F1300200F0A2FA202383F38C
:1016F0001188FEF7E5FFD4F85432BDE87040186851
:10170000197900F0C5BA00BF000000000000000019
:10171000F8B5046AD4F854321A681178042900D054
:10172000F8BD217A0229FBD15979538902EB810254
:101730000B41D26813F00105578AF1D1A669E2691D
:101740006369921BD61AB742EAD8FEF7D1FF2B463F
:1017500083F31188D4F85422B6FBF7F3106851795B
:1017600007FB03F304F10C0200F052FA202383F389
:101770001188FEF7A5FFD4F8543218685979BDE8EE
:10178000F84000F065BA00BF000000000000000053
:101790000C30FFF79DBC00BF0000000000000000FF
:1017A0000C304FF0FF33FFF793BC00BF0000000088
:1017B0003030FFF765BD00BF0000000000000000F2
:1017C00030304FF0FF33FFF75BBD00BF000000007B
:1017D0000C30FFF745BC00BF000000000000000017
:1017E0000C304FF0FF31FFF73BBC00BF00000000A2
:1017F0003030FFF7E5BC00BF000000000000000033
:1018000030304FF0FF32FFF7DBBC00BF00000000BC
:10181000704700BF00000000000000000000000052
:1018200010B503460E4A43F8042B82B00446012249
:10183000009004F15401436002720A4B0C304FF4E3
:101840008072FFF7B5FB009404F1300004F5AA7133
:101850004FF48072044BFFF783FC02B010BD00BF51
:101860004044000811170008A116000800000000FD
:1018700070B50D4604460E6808B3202383F3118823
:10188000FEF71EFF237A013B012B02D90E48FFF71A
:1018900027F82B7906EB830302229C616B790933CD
:1018A00046F82340AB7906EB8306B461C4F8545282
:1018B0002272FEF71DFF002383F3118870BD0348D9
:1018C000FFF70EF8D9E700BF2044000810440008D5
:1018D00070B5D0F8543200F10C06044630461D684D
:1018E000FFF776FB04F13000FFF74AFC201D0121D1
:1018F000FFF726FBD4F85432597905EB81032846CB
:10190000DB6832465B8A00F083F9D4F8543228460B
:101910005979BDE8704000F09BB900BF000000009D
:1019200090F8443003F06003202B01D00020704772
:1019300090F84530212B03D0222B09D0202BF5D154
:10194000064B836307220023C263036401207047B0
:1019500000238363C36303640120704700080020F1
:101960002DE9F04100EB8108D8F81840D4B10F46BA
:101970000646202383F31188FEF7DAFE201D082196
:10198000FFF7DEFA226CE36BA56BD31A5D1B17D150
:10199000D8F80C305A69556835B9FEF7E1FE0023D6
:1019A00083F31188BDE8F0811B8A013B1D40F4D10F
:1019B000FEF7D6FE2B4683F3118804F1300207E0D0
:1019C000FEF7CEFE002383F3118804F130022B468C
:1019D0003046394600F02CF9202383F31188FEF7B6
:1019E000A7FE3046394600F053F9D6E70000000064
:1019F0002DE9F84300EB8104666ACEB10F468046BC
:101A0000202383F31188FEF793FE301D0421FFF796
:101A100097FA06F11403E26838CBB2F812902D1B46
:101A2000EC1AA14506D9FEF79BFE002383F311882B
:101A3000BDE8F883FEF794FE002383F31188B4FB1E
:101A4000F9F306F10C0209FB03F34046394600F0B6
:101A5000DFF8202383F31188FEF76AFE40463946FB
:101A600000F0F6F8DFE700BF000000000000000013
:101A7000704700BF000000000000000000000000F0
:101A8000014B5B6883607047001000E000000000BD
:101A90000B4A0C498368526810B40C68C168D31AA9
:101AA0001B1B8B42836006D802695DF8044B93428E
:101AB00038BF03617047C3605DF8044B704700BFD7
:101AC000001000E0A80D0020000000000000000051
:101AD00010B586B00A4C0B4B0B4901934FF0FF3009
:101AE00000230590236004934B68084A039301A8E0
:101AF0000292FFF7CDFF039B236006B010BD00BF2D
:101B0000A80D0020811A0008001000E0911A0008BA
:101B100001F06EBB000000000000000000000000AB
:101B20000023012202704360C36183620362C362C7
:101B30004362036303814381704700BF00000000DC
:101B400070B50E460446E8B1E1B1202383F3118855
:101B5000FEF7B6FD2378013B012B02D90B48FEF7B7
:101B6000BFFE002520466660E56025616561A561D0
:101B700001F066FB02232370FEF7BAFD2B4683F3C8
:101B8000118870BD0248FEF7ABFEDEE79044000806
:101B90008044000800000000000000000000000079
:101BA000F8B504460E461546FEF73AFE04B3FDB1FD
:101BB0002378042B02D01048FEF792FE04EB860730
:101BC000FB6813B10D48FEF78BFE686918B1002160
:101BD000142202F035F9A86918B10021102202F090
:101BE0002FF9FD6020463146BDE8F84001F018BCF1
:101BF0000348FEF775FEDBE7D4440008F044000814
:101C0000BC440008000000000000000000000000CC
:101C100070B400EB81040126E468A4690025E26049
:101C200063602670A56070BC01F0F2BC000000008B
:101C300070B400EB81040126E46864690025E26069
:101C400063602670A56070BC01F0FABC0000000063
:101C500070B505460E46FEF7E3FD8DB16B8943FA7C
:101C600006F010F0010401D0012070BD0122B24045
:101C7000134328466B81314601F00AFE204670BDB1
:101C80000148FEF72DFEE9E744450008000000008A
:101C900070B505460E46FEF7C3FD8DB12B8943FA9C
:101CA00006F010F0010401D0012070BD0122B24005
:101CB000134328462B81314601F0FAFD204670BDC2
:101CC0000148FEF70DFEE9E75C4500080000000052
:101CD000002202210170A0F84C2080F84E2080F8EC
:101CE0004F2002814281C26002614261826180F8BC
:101CF000342001F015BB00BF000000000000000010
:101D0000F8B50023044680F8343000F1440201F0B5
:101D10006FFC63689B688BB32046984770B3E56B94
:101D200094F8443094F84B1094F84A2042EA012287
:101D3000AA423CBFE263154613F0800FE36840F00F
:101D40009380002D73D15B69052284F834202046EE
:101D50001D70DD605D609D60294601F071FC2023EF
:101D600083F31188FEF7E4FC29462046FFF790FF35
:101D7000FEF7F6FC2B4683F31188F8BD94F8443047
:101D800013F0600711D02046002101F0B9FD204674
:101D9000002101F0A5FD63681B6813B120460521F1
:101DA0009847062384F83430F8BD94F8455003F082
:101DB0007F0242EA0526B6F5407F00F0108118DD6B
:101DC000B6F5C06F00F0F28040F38780B6F5106F73
:101DD00000F0968040F60242964200F01381B6F57C
:101DE000006FD0D104F14F0201252764A263E5639F
:101DF00098E7022E00F0C38040F3B880B6F5807FEC
:101E000000F0A480B6F5817FBDD194F84620002A69
:101E1000B9D194F8482012F00F016CD01206204678
:101E200000F1188101F07CFD94F8443063E09B6977
:101E3000A26B0026042184F834102046DA605D602D
:101E40001E709E60314601F0E3FB202383F311886E
:101E5000FEF76EFC31462046FFF7FAFEFEF780FCE7
:101E6000334683F31188F8BDE5B15B69A26B0026A8
:101E7000012184F834102046DA605D601E709E6097
:101E8000314601F0DDFB202383F31188FEF750FC7F
:101E900031462046FFF7FCFEFEF762FC334683F333
:101EA0001188F8BD9B69032284F8342020461D70F8
:101EB000DD605D609D60294601F0AAFB202383F36D
:101EC0001188FEF735FC29462046FFF7C1FEFEF7D4
:101ED00047FC2B4683F31188F8BD40F2023296424C
:101EE00021D0B6F5A06F7FF44EAFB4F84420B2F520
:101EF000A06F00F09D800025A563E563256411E7D0
:101F000094F8462084F84F20002A40F08280032273
:101F1000227062681268002AEDD0204602219047A4
:101F200094F84430E7E794F84620002A7FF42BAF7A
:101F300094F8482012F00F01DDD01306204600F17E
:101F40008E8001F0CDFC94F84430D4E794F846201C
:101F5000012A7FF418AFB4F84C20A76322F00202E4
:101F6000E76327643D46A4F84C20DBE6002E46D10B
:101F700004F14C0202252664A263E563D2E694F8DC
:101F8000481011F0800F204601F00F0144D101F0FC
:101F90000FFB012844D002287FF4F5AE324BA36337
:101FA000E0632764054694F84430BBE6626894F821
:101FB000490094F84830556894F8471094F8462042
:101FC00043EA00232046A84700283FF4DCAE4368DC
:101FD0000568E563A363276494F84430A2E694F8A7
:101FE0004620012A7FF4CFAEB4F84C20A76342F01C
:101FF0000202E76327643D46A4F84C2092E6012ED6
:102000007FF4C1AE194AA26302250022E56322646F
:1020100088E6042222707CE701F0DAFA0128BAD1BE
:10202000134BA363E6632764354694F8443079E69E
:1020300094F8463084F84E30204601F0E1F96368A8
:102040001B6813B1204601219847032294F84430BD
:10205000227050E701F074FC94F844304BE701F033
:102060004FFC94F8443046E7704400086044000890
:10207000B045000800000000000000000000000063
:1020800038B590F83430022B044647D0052B3ED0AB
:10209000012B10D0002101F033FC2046002101F07B
:1020A0001FFC63681B6813B120460521984706236F
:1020B00084F8343038BD90F84B3090F84A20C16B2A
:1020C00042EA03228A42C26805D9158AB1FBF5F3B8
:1020D00005FB131525B393690025032284F83420EA
:1020E00029461D70DD605D609D60204601F090FA1C
:1020F000202383F31188FEF71BFB29462046FFF7B8
:10210000A7FDFEF72DFB2B4683F3118838BD036C2A
:1021100003B19847002384F8343038BDC268DAE749
:10212000536929461D70DD605D609D6001F088FA8D
:10213000202383F31188FEF7FBFA29462046FFF798
:10214000A7FDFEF70DFB2B4683F31188022384F8CD
:10215000343038BD00000000000000000000000026
:1021600038B590F83430032B04462FD0042B11D00F
:102170002046002101F0C4FB2046002101F0B0FB05
:1021800063681B6813B1204605219847062384F82D
:10219000343038BDC3685B690025052280F83420DF
:1021A00029461D70DD605D609D6001F049FA2023C5
:1021B00083F31188FEF7BCFA29462046FFF768FD35
:1021C000FEF7CEFA2B4683F3118838BDC3689B69AE
:1021D0009B68002BCCD1036C03B19847002384F893
:1021E000343038BD00000000000000000000000096
:1021F00008B5FEF7D5FA084B084A196801F03D0109
:10220000996013680BB150689847FEF7E9FABDE88A
:102210000840FEF70DB900BF00600240AC0D002081
:1022200010B5FEF7BDFA094B09481968826889099B
:1022300001F03D018C019C600AB1C0689047FEF737
:10224000CFFABDE81040FEF7F3B800BF00600240CF
:10225000AC0D0020000000000000000000000000A5
:1022600010B5FEF79DFA094B094819680269090C77
:1022700001F03D010C049C600AB140699047FEF7F3
:10228000AFFABDE81040FEF7D3B800BF00600240CF
:10229000AC0D002000000000000000000000000065
:1022A00010B5FEF77DFA094B094819688269890D56
:1022B00001F03D018C059C600AB1C0699047FEF7B2
:1022C0008FFABDE81040FEF7B3B800BF00600240CF
:1022D000AC0D002000000000000000000000000025
:1022E00008B5FEF75DFA084B08485968026A01F024
:1022F0003D01D9600AB1406A9047FEF771FABDE826
:102300000840FEF795B800BF00600240AC0D002009
:1023100010B5FEF745FA094B09485968826A8909E0
:1023200001F03D018C01DC600AB1C06A9047FEF704
:1023300057FABDE81040FEF77BB800BF00600240CE
:10234000AC0D0020000000000000000000000000B4
:1023500010B5FEF725FA094B09485968026B090CBC
:1023600001F03D010C04DC600AB1406B9047FEF7C0
:1023700037FABDE81040FEF75BB800BF00600240CE
:10238000AC0D002000000000000000000000000074
:1023900010B5FEF705FA094B09485968826B890D9B
:1023A00001F03D018C05DC600AB1C06B9047FEF77F
:1023B00017FABDE81040FEF73BB800BF00600240CE
:1023C000AC0D002000000000000000000000000034
:1023D00008B5FEF7E5F9084B08481968026C01F0EA
:1023E0003D0199600AB1406C9047FEF7F9F9BDE8EC
:1023F0000840FEF71DB800BF00640240AC0D00208D
:1024000010B5FEF7CDF9094B09481968826C8909A6
:1024100001F03D018C019C600AB1C06C9047FEF751
:10242000DFF9BDE81040FEF703B800BF00640240CA
:10243000AC0D0020000000000000000000000000C3
:1024400010B5FEF7ADF9094B09481968026D090C82
:1024500001F03D010C049C600AB1406D9047FEF70D
:10246000BFF9BDE81040FDF7E3BF00BF00640240C4
:10247000AC0D002000000000000000000000000083
:1024800010B5FEF78DF9094B09481968826D890D61
:1024900001F03D018C059C600AB1C06D9047FEF7CC
:1024A0009FF9BDE81040FDF7C3BF00BF00640240C4
:1024B000AC0D002000000000000000000000000043
:1024C00008B5FEF76DF9084B08485968026E01F02F
:1024D0003D01D9600AB1406E9047FEF781F9BDE831
:1024E0000840FDF7A5BF00BF00640240AC0D00200E
:1024F00010B5FEF755F9094B09485968826E8909EC
:1025000001F03D018C01DC600AB1C06E9047FEF71E
:1025100067F9BDE81040FDF78BBF00BF00640240C3
:10252000AC0D0020000000000000000000000000D2
:1025300010B5FEF735F9094B09485968026F090CC7
:1025400001F03D010C04DC600AB1406F9047FEF7DA
:1025500047F9BDE81040FDF76BBF00BF00640240C3
:10256000AC0D002000000000000000000000000092
:1025700010B5FEF715F9094B09485968826F890DA6
:1025800001F03D018C05DC600AB1C06F9047FEF799
:1025900027F9BDE81040FDF74BBF00BF00640240C3
:1025A000AC0D002000000000000000000000000052
:1025B0000D4B30B400220D4D0D4C1A6011461346E0
:1025C000A858016044F833100133102B02F10C02BB
:1025D000F6D10849084A4FF0FF338B6030BCCB601E
:1025E0009360D360704700BF2C0E00201046000897
:1025F000AC0D0020006002400064024000000000BA
:10260000F0B5054685B000283FD0244C6F7A266887
:10261000012000FA07FE1EEA060F2BD120484EEAE1
:10262000060600EBC70C16F0FF0F266040F83720B7
:10263000CCF8043004D01B48036B43F4001303634D
:1026400016F47F4F18D12B68186820F01F0018600F
:10265000186810F00104FBD12F7A6E683D20B84055
:10266000212730601C605F6162B1A87A0901FDF723
:102670004FFF204605B0F0BD0A48036B43F48003CA
:102680000363E0E7104605B0F0BD074803930292EC
:102690000191FEF725F901A90EC9B6E72C0E00201D
:1026A000AC0D002000380240C045000800000000CA
:1026B000204B21491A694FF0FF300022F0B5186114
:1026C0001A615C6958615A611C6A1C4FDFF878E036
:1026D0001B4E1C4D64F080541C621A620724D3F810
:1026E00024C058625A62C1F804E08A600C60F9683C
:1026F00041F08071F960316841F001013160196C7D
:1027000041F080511964296841F480712960196F82
:1027100001F44071B1F5007F03D04FF480311967A7
:102720001A67084A536823F400735360BDE8F04009
:10273000FFF73EBF0038024010E000E0F0ED00E09F
:10274000001000E0007000403F9002000000000018
:102750002A4A2B4B4FF080504FF4404110641960CF
:10276000136843F001031360136824499807FBD5ED
:102770000B68002203F0F9030B6008468A60826848
:102780001E4B12F00C0FFAD11A6842F480321A6014
:102790001A461168194B8903FBD55A6F42F00102A2
:1027A0005A675A6F15499007FBD5164B4B600B685B
:1027B000134A43F080730B6053685904FCD50F49EA
:1027C0000A680E4B9201FBD50F4A1049996040F2FE
:1027D000057111609A6842F002029A601A46936885
:1027E000064903F00C03082BF9D14B6C43F48043EA
:1027F0004B644B6E43F480434B6670470038024095
:102800000070004008544007003C02400094083823
:1028100010B5084C2046FEF71BFE0749074A084B37
:10282000A162E262236312206021BDE81040FDF73F
:102830006FBE00BF300E002000200140A0460008FF
:10284000162C020000000000000000000000000044
:1028500038B50378012B00D038BD134DA84204468B
:102860000DD01248A26A436803F44003002143F4E8
:1028700080330124436051609160946038BDC06A28
:102880000B4A06212346FFF7BBFE48B9EB6A094A0B
:102890001B6809499960536C43F480735364E0E703
:1028A0000648FEF71DF8F1E7300E00200023014036
:1028B000012A0008003802404C200140D0460008A0
:1028C0000369016B1A782DE9F043C4682AB1012C21
:1028D00094BF41F4807141F48471C56A5A882D68AF
:1028E0008668EE6002FB04F203F118086A60DC6897
:1028F000296098E8005119692E68826AD3F814900B
:102900005F6A11F0804F44F0806341F4407146F0FB
:1029100001004FF0000443F4807314BF41F0030141
:1029200041F0010128601460C2F80C90C2F81080D8
:10293000C2F82CC0C2F830E0576353609160BDE824
:10294000F08300BF00000000000000000000000055
:10295000C16A0A68136823F01F031360136813F039
:102960000103FBD130B40D7A4C68826A3D21A94045
:1029700001202160536030BC93609060704700BFBD
:1029800070B5FDF70DFF1C4B1A6800211960930606
:102990002BD51A4CE36A1B685B6833B3236923B3F6
:1029A0002046FFF7D5FF23699B684BB105222270B3
:1029B0002046012198472378052B04BF022323706A
:1029C000002525610D4E202383F31188FDF7B0FE0D
:1029D000606928B14FF0FF3383627561FEF700F83C
:1029E000FDF7BEFE002383F31188FDF7F9FEBDE875
:1029F0007040FDF71DBD00BF00200140300E0020DB
:102A000011F00C0F70B5044619D10369B3B18D06EE
:102A100012D51A78002A45D05D687DB1C268012AB6
:102A20003BD95B888168520803FB02F301EB430149
:102A30002B46BDE870401847CA0625D470BDFFF785
:102A400087FF23699B684BB1052222702046002135
:102A500098472378052B04BF0223237000252561A6
:102A6000202383F31188FDF763FE636933B14FF0D0
:102A7000FF32656118469A62FDF7B2FFFDF770FEFE
:102A8000002383F3118870BD5B68002BD6D0C26829
:102A900081685208BDE8704018472B468168BDE840
:102AA00070401847FFF754FF23695B68BBB10422ED
:102AB00022702046A168E26898472378042B0ED044
:102AC000202383F31188FDF733FE6369002BD5D0F3
:102AD0000022626118469A62FDF782FFCEE7022269
:102AE000002322702361EBE70000000000000000DB
:102AF000024A536843F400035360704700230140C7
:102B00002DE9F04FDFF8B481DFF8B4C1D8F830A078
:102B1000DFF8B0E1634F644E644D654C6549664A29
:102B2000DFF8A4B140F2FF194AEA090AC8F830A058
:102B3000D8F850A04AEA0909C8F850904368CCF880
:102B400004308368CCF80830C368CCF80C300369D3
:102B5000CCF814304369CCF820308369CCF82430A9
:102B60000368CCF80030036ACEF80430436ACEF82C
:102B70000830836ACEF80C30C36ACEF81430036B89
:102B8000CEF82030436BCEF82430C369CEF8003045
:102B9000C36B7B60036CBB60436CFB60836C7B61CD
:102BA000C36C3B62036D7B62836B3B60876D7760B8
:102BB000C76DB760076EF760476E7761876E3762E3
:102BC000C76E7762476D3760466F6E60866FAE6026
:102BD000C66FEE60D0F880606E61D0F884602E62BF
:102BE000D0F888606E62066F2E60D0F890506560F5
:102BF000D0F89450A560D0F89850E560D0F89C507B
:102C00006561D0F8A0502562D0F8A4506562D0F874
:102C10008C502560D0F8AC404C60D0F8B0408C604F
:102C2000D0F8B440CC60D0F8B8404C61D0F8BC408B
:102C30000C62D0F8C0404C62D0F8A8400C60D0F8CC
:102C4000C8105160D0F8CC109160D0F8D010D1608D
:102C5000D0F8D4105161D0F8D8101162D0F8DC103F
:102C60005162D0F8C4101160D0F8E420CBF80420F1
:102C7000D0F8E820CBF80820D0F8EC20CBF80C20D6
:102C8000D0F8F020CBF81420D0F8F420CBF8202096
:102C9000D0F8F820CBF82420D0F8E020CBF80020A2
:102CA000BDE8F08F00080240000C02400010024016
:102CB0000014024000180240001C0240003802408C
:102CC000000002400004024000200240000000001A
:102CD0002DE9F04F4FF00F0C02F0030EC2F3800706
:102CE000C2F3C106C2F341150024C2F3C3124FF070
:102CF00001094FF003082BE0D0F820B02BEA0303C2
:102D000043EA0A030362436809FA04FA23EA0A035E
:102D10003B4343604FEA440A836808FA0AFA6FEAC1
:102D20000A0A0AEA030333438360C3680AEA030317
:102D30002B43C36003680AEA030343EA0E030360FC
:102D4000490819D07F00B600AD004FEA8E0E01345D
:102D500004F007039B0011F0010F02FA03FA0CFACA
:102D600003F3EDD0072CC7D9D0F824B02BEA030326
:102D700043EA0A034362C6E7BDE8F08F00000000A3
:102D80002DE9F04FB54BB6499A69066D916185B052
:102D90008346202383F31188FDF792FC4FF000094E
:102DA0009BF80030012B05D0DBF85C306BB9736900
:102DB000DB060AD4B369A94A43F010039269B361F0
:102DC0000220CBF86420FDF763FEFDF791FC0023A1
:102DD00083F311889A46736913F0100423D0DBF84B
:102DE0005000036A03F4F012B2F5802F32D0B2F52E
:102DF000402FF0D103F00F020BEB8202C3F30A1352
:102E0000D26803339B08146AE5D000F58050022293
:102E1000016812B144F8041B013A013BF8D173690F
:102E200013F01004DBD10122DBF85C3002FA0AF265
:102E30001A4202927DD10AF1010ADBF854309B68F4
:102E40005FFA8AFA9A45C6D9202383F31188FDF7E1
:102E500037FCA5E703F00F070BEB8707C3F30A1551
:102E6000FB689A691378EBB953689168D2F80CE063
:102E70000333591AEB1C9B084FEA910109D000F566
:102E80008050F446046811B14CF8044B0139013B01
:102E9000F8D10EEB0504D460FB689A6993682B4463
:102EA000936098E7D4683DB300F58050AE46BEF11C
:102EB000030F626908D923699A4205D3E368636105
:102EC000BEF1030F6269F6D8D0F800C0002102F10C
:102ED00001082CFA01F3C4F81480137023696269A5
:102EE0009A4224BFE3686361BEF1010E04D0182941
:102EF000DDD008316269EAE7202383F31188FDF70A
:102F0000DFFBA36820682B44A042A36009D00368BC
:102F100023605C60FDF764FDC0F828902068A04243
:102F2000F5D1FDF795FEFDF7E3FB002383F3118850
:102F3000B2E7202383F31188FDF7C2FBB268DBF808
:102F40005C30029922F0010223EA0103B260CBF85F
:102F50005C30FDF7CDFB234683F311880BEB8A032E
:102F60001F46DC68626991685368994280F0C080AE
:102F7000DBF85000258A4FEA4A14019404195B1AC1
:102F8000D4F818199D4228BF1D468BB2B5EB830FAC
:102F90000AF1010A2DD803963E461378002B3FD143
:102FA000EB1C00EB0A3ED0689B0818BF014605D019
:102FB00051F8044BCEF80040013BF9D12844D060D1
:102FC000F4686269936851682B449942936040F2B7
:102FD0008C80019DDBF85000248A4719CD1AD7F860
:102FE0001839A54228BF25469BB2B5EB830FD4D92B
:102FF000039E0024202383F31188FDF761FBB3684F
:1030000043F00103B3602CB9D6F83438029A1A435E
:10301000C6F83428FDF76CFB002383F311880CE716
:1030200000EB0A3ED4680DB3D4F810C02A469308CA
:1030300039D1A369002108465F1CA7611B78674549
:1030400003FA01F340EA030024BFE368A361013AF5
:1030500008D0182906D00831A369EDE7640D0020D7
:1030600000470008CEF80000002AE0D1202383F3B7
:103070001188FDF725FBA36820682B44A042A360BC
:1030800009D0036823605C60FDF7AAFCC0F82890B3
:103090002068A042F5D1FDF7DBFDFDF729FB0023F9
:1030A00083F311888CE7A069BCEB000148BF0331B2
:1030B00089108B4228BF0B464FEA8308C8EB0202F7
:1030C0003BB1014651F8047BCEF80070013BF9D1C9
:1030D00040448445A06104D8E368A361002AA6D1D6
:1030E000C4E7002AC2D00346A4E7039E012481E777
:1030F0000AF1010AFAE700BF00000000000000002A
:10310000F0B50024D1F808E025464FF0804C4FF090
:10311000FF3714E0C1F80059C218C2F81059C2F8BC
:103120000879D1F8006B002E17DBC1F8005B03446F
:103130000134A645C3F8105BC3F8087B14D36301C0
:10314000C118D1F80029002AE4DAC1F800C90E46F6
:10315000D6F808299207FBD5DEE7C1F800CBD2F8F4
:10316000081BC906FBD5E2E74FF00113C0F81C3875
:10317000F0BD00BF000000000000000000000000E3
:103180002DE9F041174F3D6D05EB40130646D3F88E
:10319000084BC3F8084B200703D5D5F81438190796
:1031A00017D4E20703D5D5F81438DB0701D4BDE8FE
:1031B000F08107EB86017A89C9680A48CC68012347
:1031C000B34022EA03037B8131462346BDE8F04148
:1031D000184707EB86033846DB6831465B6898473B
:1031E000DFE700BF680E00200000000000000000C4
:1031F00070B50E4C0E4E2046FEF792FC04F1B4055D
:103200004FF0A0432365294604F168000023FF2204
:10321000666523666366FDF773FD284604F5B6719F
:103220005522BDE87040FDF76BBD00BF680E002061
:10323000F046000800000000000000000000000050
:1032400070B50378066D012B82B001D002B070BD5D
:103250002E4B9842054649D02B6E0022EA65002B82
:1032600038D02B4BF3602B492C6DC6F800184FF467
:1032700050230022C6F8002E2020B363FEF7C8F8C2
:10328000012323612369DB07FCD40C20FEF7C0F87F
:103290002369002BFCDA0024B460286D696DFFF708
:1032A0002FFF6B68C6F81048DB68C6F81448C6F8EC
:1032B0001C485BB143F20803B3614FF0FF33736105
:1032C000B36843F00103B36002B070BD4FF44053E4
:1032D000B361F2E7009505F168004FF4A87102228E
:1032E0000D4BFDF715FD68662866BAE70B4B5A6B68
:1032F00042F080025A635A69002142F080025A610A
:1033000043205961E021FDF703F9A5E7680E00208D
:103310004014004003002002812D000800380240C4
:10332000F8B5056D202307462B612B6913F02004A7
:10333000FBD10C20FEF76CF8D7F854E0DEF80860FB
:1033400023464FF00060FF2105EB43120133B342E7
:10335000C2F80009C2F8000BC2F80819C2F8081B2D
:10336000F2D9DEF800304FF0FF324FF00111C5F80E
:1033700018283A6DC5F81C18BB65DEF800306B6282
:1033800010231361136913F01004FBD10C20FEF716
:103390003FF8D5F80038786D134A144E23F4FE63D5
:1033A000C5F80038AB6943F4402343F0100309210A
:1033B000AB61C5F81018C5F81418FE60C5F8104BBD
:1033C000C5F8002BC5F81049C5F80029BC6D04F1FB
:1033D0001003BB654268934202D90548FDF780FAA5
:1033E00044F48014AC62F8BD4080001030470008FF
:1033F000104700080000000000000000000000006E
:10340000026D90F84E10D2F8003823F4FE6343EAC0
:103410000113C2F8003870470000000000000000EF
:103420002DE9F84F0FB200EB87080D46D8F80C10C5
:10343000046D0B6803F00303022B064665D0032BD3
:1034400060D05448544A012B0CBF814691466B0111
:10345000CA68E0184FF0000EC0F810EB002A5BD0ED
:10346000488A05F15802520149EA0000A05005F1CE
:10347000100ED4F81C08012202FA0EF20243C4F81E
:103480001C2823448A680020C3F81009002A5DD054
:103490008B8B0A8AD6F858B09208012B88BF5A4302
:1034A00002EB0B01736DB1655B6899424FEA02470D
:1034B00005F1FF3A2CD80AF1400A326D04EB8A0A72
:1034C000AB0147EA0B0743F02003CAF8047013610D
:1034D00013699906FCD40C20FDF79AFFD8F80C303C
:1034E0001B8A05F14802520143EA855343EA090366
:1034F000A3500123D4F81C28AB401343C4F81C3854
:10350000BDE8F88FDFF89C90A1E7DFF89C909EE77C
:103510002248FDF7E5F9CEE704EB471205F1100E5E
:10352000D2F8000B20F40040C2F8000BD4F81C08BD
:10353000012202FA0EF220EA0202C4F81C282344F7
:103540008A680020C3F81009002AA1D105F13F03C1
:10355000326D134804EB8303A90141F02001586048
:10356000116113699B06FCD404EB47170C20FDF78F
:103570004FFFD7F8002922F40042C7F80029D4F8F9
:103580001C280123AB4022EA0303C4F81C38BDE821
:10359000F88F00BF00800410008000101047000862
:1035A0000004000200800C100080081000000000E1
:1035B0005831036D49015B5813F4004004D013F4F3
:1035C000001F14BF01200220704700BF0000000050
:1035D0004831036D49015B5813F4004004D013F4E3
:1035E000001F14BF01200220704700BF0000000030
:1035F00000EB8101CB681B6A19685B68536011603E
:10360000704700BF00000000000000000000000044
:1036100000EB810310B4DB68006D9A695C8A536823
:1036200000EB41115A1E43F0C0432244B2FBF4F2B6
:1036300043EAC243C1F8103B5DF8044B704700BF3A
:1036400000EB810310B4DC68626953681361ABB1AD
:1036500071B15A1E006D248A00EB41112244B2FB65
:10366000F4F243EAC243C1F810395DF8044B7047E5
:10367000402BEED9402353603F22EBE7036D5DF80A
:10368000044B03EB41114FF40023C1F8103970478C
:103690002DE9F041364D2E6D06EB40130746D3F869
:1036A0000849C3F80849E10703D5D6F81038DA0706
:1036B00009D4230605D50124D6F83438BC401C4271
:1036C0002ED1BDE8F08105EB8003D9684B695868BD
:1036D0001A69904240D2121A4FF000085A60C3F89B
:1036E000088028463946FFF7ABFF202383F3118873
:1036F000FDF71EF82B6D03EB47100122D0F80019DF
:1037000041F00441C0F80019D3F83418BA400A4314
:10371000C3F83428FDF724F8434683F31188C8E73B
:10372000202383F31188FDF703F8EA6DD6F83438C7
:10373000686E0F4F224323EA0404EA65C6F8344852
:1037400018B1FDF74DF900237B66FDF709F800235A
:1037500083F31188BDE8F0812A89D1F808C00123DC
:10376000BB4022EA03032B8128463946E047A0E705
:10377000680E0020000000000000000000000000B3
:1037800070B5404EFDF70CF8356D6B69AC691C40A7
:10379000E0046C6131D4A10448BFD5F80838220791
:1037A00004D57368DB680BB136489847E3062FD41D
:1037B0006003D5F8185807D5E90750D4AA0753D4A1
:1037C0006B0756D42E0759D4240307D5E8033BD4FE
:1037D000A9033ED46A0331D42B0305D4FDF700F8C6
:1037E000BDE87040FCF724BE0320FFF7C9FCFCF7DE
:1037F000F7FFBDE87040FCF71BBE3046FEF768FAE5
:1038000073681B68002BC6D0304600219847C2E77A
:10381000202383F31188FCF78BFFAB69706E194E80
:1038200023F01003AB6118B1FDF7DAF800237366DB
:10383000FCF796FF002383F31188B9E70220FFF716
:103840009FFC2B03CAD5CFE70020FFF799FCA90303
:10385000C0D50120FFF794FC6A03BDD5EEE7002038
:10386000FFF716FFAA07ABD50120FFF711FF6B0783
:10387000A8D50220FFF70CFF2E07A5D50320FFF7E0
:1038800007FFA1E7680E0020000000000000000014
:10389000036D03EB4111D1F8003B43F08063C1F8A5
:1038A000003B704700000000000000000000000026
:1038B000036D10B403EB41140122D4F8000940F069
:1038C0000440C4F80009D3F834085DF8044B8A407A
:1038D0000243C3F8342870470000000000000000D5
:1038E000036D03EB4111D1F8003B43F40013C1F821
:1038F000003B7047000000000000000000000000D6
:10390000036D03EB4111D1F8003943F40013C1F802
:1039100000397047000000000000000000000000B7
:10392000036D03EB4111D1F8003B23F40013C1F800
:10393000003B704700000000000000000000000095
:10394000036D03EB4111D1F8003923F40013C1F8E2
:103950000039704700000000000000000000000077
:10396000034A93899BB243F080039381704700BF61
:1039700000100140000000000000000000000000F6
:10398000F8B54B4EFCF70CFF756FAB892C88A4B2D1
:10399000E0059FB255D4202383F31188FCF7C8FEBD
:1039A000A10621D508E0A9884148C9B2FDF750FE1B
:1039B0002C88A4B2A00617D52207F4D014F0080F63
:1039C00014BF8021002114F0010F18BF41F0200125
:1039D000A30748BF41F040016407364848BF41F49F
:1039E0008071FDF7ADFADEE7FCF7BAFE002383F342
:1039F0001188390601D5220636D4630605D4FCF7B2
:103A0000EFFEBDE8F840FCF713BD202383F31188D7
:103A1000FCF78EFE726CB36C25489A4236D027F0C4
:103A200040039BB24FF6BF72AB812A80FCF798FE31
:103A3000002383F31188FCF7D3FEBDE8F840FCF7C0
:103A4000F7BC202383F31188FCF772FE301D4FF47E
:103A50000071FDF775FAFCF783FE002383F31188EC
:103A60004FF6FF632B8096E7202383F31188FCF742
:103A70005FFE1148FDF7DCFB00280FDB80B2A88059
:103A8000FCF76EFE002383F31188B6E7836B002BEF
:103A9000C5D004301021FDF753FAC0E705480821CE
:103AA000FDF74EFA27F0C00343F04003AB81E7E790
:103AB0003C100020401000206C100020000000008E
:103AC00010B5044C044A20460021FDF7A1FD034B2C
:103AD000636710BD3C1000206139000800100140F0
:103AE000FEF736BE000000000000000000000000ED
:103AF000704700BF00000000000000000000000050
:103B0000022906D0032906D00129064818BF002043
:103B1000704705487047032A9ABF044B03EBC20065
:103B200000207047104A000890480008E04900084B
:103B300002291AD138B505460C46202383F3118893
:103B4000FCF7F6FD28460121084AFEF729F8214630
:103B5000074A2846FEF724F80648FDF7B9FEFCF7A9
:103B6000FFFD002383F3118838BD704760480008CB
:103B7000A0480008C810002000000000000000005D
:103B8000054BD3F854321B681878A0F10400B0FA42
:103B900080F04009704700BFC810002000000000FE
:103BA00038B50E4D0E4C2846FDF73AFE0D49284615
:103BB000FDF75EFE226D936B23F40023936340F2C6
:103BC000DC50FDF735F920460749FDF7B9FF226DB6
:103BD000936B43F40023936338BD00BFC8100020EB
:103BE000680E0020004A0008D048000800000000CD
:103BF000704700BF0000000000000000000000004F
:103C00000E4B0F4A9B692DE9F041DFF83C800D4DCA
:103C10009A614FF4004748F2000698F800306E832E
:103C2000002B14BF4B244FF4FA742046FDF700F923
:103C300020462F83FDF7FCF8EFE700BF640D00205E
:103C4000204A0008000C024044130020000000003D
:103C50000B4B0C4A9B6970B50B4E9A614FF40055A3
:103C6000FFF78EFF002814BF7D244FF4FA7420461E
:103C70007583FDF7DDF820463583FDF7D9F8EFE7CA
:103C8000640D0020304A0008000C024000000000D3
:103C900008B5054B054A9B699A610549054A0648DE
:103CA0000423FDF73DFCF8E7640D0020344A0008CA
:103CB000604A000848180020300E00200000000074
:103CC0002DE9F04F234B244E9B69244ADFF898805E
:103CD000DFF89890224FDFF898B09A6185B0B2462D
:103CE000B8F80610B8F80200B8F80A20B8F80E3094
:103CF00008441044184469460A22800800F098F8E5
:103D000099E8070001AB03C39DF800509DF80140FE
:103D10009DF802009DF803108DF808508DF80940B9
:103D20001A708DF80A008DF80B10092401250D4832
:103D30003B68357001A90922FDF7A2FA241A002C6C
:103D4000F5DC002301208BF800308AF80030FDF705
:103D50006FF8C5E7640D002044130020404A0008B6
:103D600008080020F810002048180020603F0008D4
:103D700058180020000000000000000000000000B3
:103D800070B50D4600F10C060C4600E01C463046AE
:103D90004FF0FF31FDF764F92346C2B203F8012B5F
:103DA0000A2AA3EB0500F1D10023637070BD00BFA8
:103DB0000D4B0E4A9B6970B50D4E0E4D9A610E4922
:103DC0000E48FFF7DDFF04460120FDF731F8002C17
:103DD0004FF0010333704FF48053D6BF4FF480533C
:103DE0002B836B83EBE700BF640D0020504A000873
:103DF00058180020000C0240B0190020C810002004
:103E0000931E222B10D80A2A10B506D000230C4688
:103E1000194400F065F8204610BD0028F6DA2D237D
:103E20000B7040420123F2E700200870704700BF8A
:103E3000FFF7E6BF000000000000000000000000E7
:103E400070B4840746D0541E002A41D0CDB2034638
:103E500002E0621EE4B3144603F8015B9A07F8D14E
:103E6000032C2ED9CDB245EA05250F2C45EA054590
:103E700019D903F110022646103E0F2E42F8105CAD
:103E800042F80C5C42F8085C42F8045C02F1100253
:103E9000F2D8A4F1100222F00F0204F00F04103245
:103EA000032C13440DD91E462246043A032A46F831
:103EB000045BFAD8221F22F003020432134404F0F8
:103EC00003042CB1C9B21C4403F8011BA342FBD16B
:103ED00070BC704714460346C2E700BF00000000F4
:103EE000F0B5DFF878E0164604460F46BEE80F004E
:103EF0008BB06D460FC5BEE80F000FC59EE80300EE
:103F0000B31E45F8040B222B297022D87D1E2846AB
:103F1000002200E01A46B4FBF6F10AAB06FB11449E
:103F200023440C4613F8283C00F8013F531C002999
:103F3000F0D1F954BB184AB1197815F8010F29705E
:103F40000134111B8C4203F80109F5DB38460BB034
:103F5000F0BD002038700BB0F0BD00BF904A0008E3
:103F6000612E312E313233340A000000000000008F
:103F700069646C65000000000000000000000000A3
:103F80005356233100000000535623320000000036
:103F90005356233300000000535623340000000022
:103FA000535623350000000053562336000000000E
:103FB00053562337000000005356233800000000FA
:103FC00053562339000000005356233130000000BF
:103FD00053562331310000000000000000000000B3
:103FE0002263685654536574492228290000000052
:103FF000226368565452657365744922282900006B
:104000006368565452657365744928292C202331FE
:1040100000000000000000000000000000000000A0
:10402000636853636852656164794928292C2023A9
:1040300031000000737461636B206F766572666C8B
:104040006F7700000000000000000000000000008A
:104050002263685468644372656174654922282943
:1040600000000000226368546864536574507269EC
:104070006F7269747922282900000000636854680F
:1040800064526573756D6528292C2023310000006A
:10409000226368546864536C6565702228290000A7
:1040A0006368546864457869745328292C20233147
:1040B0000000000022636854686457616974222814
:1040C0002900000063685468645761697428292CCA
:1040D0002023310063685468645761697428292C6F
:1040E000202332000000000000000000000000005B
:1040F0006D61696E0016851104044C080C101418CB
:104100001C202122232400000000000000000000E9
:104110002263684D7478496E697422282900000072
:104120002263684D74784C6F636B5322282900001A
:1041300063684D74784C6F636B5328292C202331AE
:104140000000000063684D74784C6F636B5328293E
:104150002C202332000000002263684D74785472D2
:10416000794C6F636B5322282900000063684D74FB
:1041700078556E6C6F636B28292C2023310000006A
:1041800063684D7478556E6C6F636B28292C2023FF
:104190003200000063684D7478556E6C6F636B532A
:1041A00028292C202331000063684D7478556E6CEB
:1041B0006F636B5328292C2023320000000000007D
:1041C00022636845767452656769737465724D61E0
:1041D000736B222829000000226368457674556EAF
:1041E00072656769737465722228290022636845C5
:1041F00076745369676E616C4922282900000000BB
:1042000022636845767442726F6164636173744DB2
:1042100061736B49222829002263684576745369CB
:10422000676E616C222829002263684576744469B0
:104230007370617463682228290000006368457602
:1042400074446973706174636828292C20233100D9
:1042500022636849515265616454696D656F757474
:10426000222829002263684F515772697465546986
:104270006D656F75742228290000000000000000A1
:104280002261646353746172742228290000000063
:10429000616463537461727428292C2023310000F7
:1042A0002261646353746F70222829006164635330
:1042B000746F7028292C2023310000002261646370
:1042C0005374617274436F6E76657273696F6E4971
:1042D000222829006164635374617274436F6E769F
:1042E000657273696F6E4928292C20233100000004
:1042F0002261646353746F70436F6E766572736985
:104300006F6E22282900000061646353746F70434C
:104310006F6E76657273696F6E28292C20233100C9
:104320002261646353746F70436F6E766572736954
:104330006F6E49222829000061646353746F7043D3
:104340006F6E76657273696F6E4928292C20233150
:1043500000000000616463436F6E76657274282903
:104360002C202331000000002261646341637175D9
:104370006972654275732228290000002261646316
:1043800052656C65617365427573222829000000CF
:104390002273645374617274222829007364537405
:1043A00061727428292C2023310000002273645389
:1043B000746F702228290000736453746F70282969
:1043C0002C20233100000000227364496E636F6D5E
:1043D000696E67446174614922282900227364521E
:1043E0006571756573744461746149222829000000
:1043F000B115000891150008F1150008D115000845
:10440000E1150008C1150008A11500088115000874
:1044100022736475537461727422282900000000AD
:10442000736475537461727428292C202331000041
:1044300073647553746F7028292C20233100000099
:10444000C1170008A117000801180008E1170008AB
:10445000F1170008D1170008B117000891170008DC
:10446000000000000000000000000000000000004C
:10447000000000000000000000000000000000003C
:10448000227573625374617274222829000000003F
:10449000757362537461727428292C2023310000D3
:1044A0002275736253746F702228290075736253EA
:1044B000746F7028292C202331000000227573624C
:1044C000496E6974456E64706F696E74492228295B
:1044D00000000000757362456E61626C65456E6434
:1044E000706F696E744928292C2023310000000068
:1044F000757362456E61626C65456E64706F696E5E
:10450000744928292C202332000000002275736290
:1045100044697361626C65456E64706F696E747333
:1045200049222829000000007573624469736162A2
:104530006C65456E64706F696E74734928292C2010
:104540002331000022757362537461727452656383
:10455000656976654922282900000000227573628A
:1045600053746172745472616E736D697449222858
:1045700029000000227573625374616C6C5265638C
:10458000656976654922282900000000227573625A
:104590005374616C6C5472616E736D697449222836
:1045A00029000000000000000000000000000000E2
:1045B00001000000000000000000000000000000FA
:1045C00022646D6153747265616D416C6C6F6361DF
:1045D000746522282900000022646D61537472659D
:1045E000616D52656C6561736522282900000000C9
:1045F000646D6153747265616D52656C656173655C
:1046000028292C20233100000000000000000000B9
:10461000106002400860024000000B002860024069
:104620000860024006010C00406002400860024041
:1046300010020D00586002400860024016030E0090
:10464000706002400C60024000040F00886002406D
:104650000C60024006051000A06002400C600240A1
:1046600010061100B86002400C60024016072F00CF
:1046700010640240086402400008380028640240C8
:1046800008640240060939004064024008640240A0
:10469000100A3A005864024008640240160B3B00BE
:1046A000706402400C640240000C3C0088640240CC
:1046B0000C640240060D4400A06402400C640240F9
:1046C000100E4500B86402400C640240160F46000C
:1046D0006164635F6C6C645F737461727428292C0D
:1046E0002023310000000000000000000000000056
:1046F00080000000400100000300000000000000F6
:104700007573625F6C6C645F70756D7000000000A3
:104710006F74675F6669666F5F616C6C6F63282991
:104720002C202331000000000000000000000000E9
:1047300000000000011D0008812000086121000820
:104740004000400020100020201000200100000048
:1047500034100020000000000000000000000000F5
:1047600000AAA02A00000000FFABFFFF5400014098
:10477000FFFF00000000565500AA0A008020080034
:1047800040020000FFFFFFFF15455155FFFF0000ED
:104790000000000440000000018020020000000032
:1047A000FFFFFFFF54154554FFFF000000000060AD
:1047B000000606000001005500000000FFFFFFFF9B
:1047C00055505500FF0F00000000000000000000E1
:1047D0004000000000000000FFFFFFFF000000009D
:1047E000FFFF0000000000000000000000000000CB
:1047F00000000000FFFFFFFF00000000FFFF0000BF
:1048000000000000000000000000000000000000A8
:10481000FFFFFFFF00000000FFFF0000000000009E
:10482000000000000000000000000000FFFFFFFF8C
:1048300000000000FFFF000000000000000000007A
:104840000000000000000000FFFFFFFF000000006C
:10485000FFFF00000000000000000000000000005A
:10486000020000000000000061190008F1190008B2
:1048700040004000201300203413002002000000FC
:104880000000000000000000000000000000000028
:1048900043000000E04800080000000000000000A5
:1048A0000300000000000000711A00080000000072
:1048B00010000000B4100020000000000100000003
:1048C00000000000000000000000000000000000E8
:1048D000313B0008013B00082119000800000000DE
:1048E00009024300020100C0320904000001020273
:1048F0000100052400100105240100010424020226
:104900000524060001070582030800FF09040100D1
:10491000020A0000000705010240000007058102AD
:104920004000000000000000000000000000000047
:1049300012011001020000408304405700020102EE
:104940000301000000000000000000000000000063
:104950000403090400000000000000000000000043
:104960002603530054004D006900630072006F007D
:1049700065006C0065006300740072006F006E00DB
:1049800069006300730000000000000000000000E8
:104990003803430068006900620069004F0053005B
:1049A0002F0052005400200056006900720074006D
:1049B000750061006C00200043004F004D00200096
:1049C00050006F0072007400000000000000000042
:1049D000080332003600350000000000000000002F
:1049E000040000005049000826000000604900084B
:1049F000380000009049000808000000D049000875
:104A0000680E00200101020000000000000000000C
:104A10001200000030490008000000000000000003
:104A20007772697465206C656420626C756500003E
:104A30007573620053616D706C65204144430000E2
:104A400077726974652074687265616400000000A3
:104A50007265616420746872656164000000000022
:104A600000000200F13B0008000000000000000010
:104A70000000004018000C000000000000001000C2
:104A800000000000700100000000000000000000B5
:104A900030313233343536373839616263646566B4
:104AA0006768696A6B6C6D6E6F707172737475761E
:084AB0007778797A000000001C
:0C4AB80000960000000008000A0000004A
:04000005080002B13C
:00000001FF
